{
  "address": "0x665f38360Ee42Ef84A1048316397415E4efDE707",
  "abi": [
    {
      "inputs": [
        {
          "internalType": "address",
          "name": "_vrfCoordinator",
          "type": "address"
        },
        {
          "internalType": "address",
          "name": "_linkToken",
          "type": "address"
        }
      ],
      "stateMutability": "nonpayable",
      "type": "constructor"
    },
    {
      "anonymous": false,
      "inputs": [
        {
          "indexed": true,
          "internalType": "address",
          "name": "previousOwner",
          "type": "address"
        },
        {
          "indexed": true,
          "internalType": "address",
          "name": "newOwner",
          "type": "address"
        }
      ],
      "name": "OwnershipTransferred",
      "type": "event"
    },
    {
      "inputs": [],
      "name": "Swaplottery",
      "outputs": [
        {
          "internalType": "address",
          "name": "",
          "type": "address"
        }
      ],
      "stateMutability": "view",
      "type": "function"
    },
    {
      "inputs": [],
      "name": "fee",
      "outputs": [
        {
          "internalType": "uint256",
          "name": "",
          "type": "uint256"
        }
      ],
      "stateMutability": "view",
      "type": "function"
    },
    {
      "inputs": [
        {
          "internalType": "uint256",
          "name": "_seed",
          "type": "uint256"
        }
      ],
      "name": "getRandomNumber",
      "outputs": [],
      "stateMutability": "nonpayable",
      "type": "function"
    },
    {
      "inputs": [],
      "name": "keyHash",
      "outputs": [
        {
          "internalType": "bytes32",
          "name": "",
          "type": "bytes32"
        }
      ],
      "stateMutability": "view",
      "type": "function"
    },
    {
      "inputs": [],
      "name": "latestLotteryId",
      "outputs": [
        {
          "internalType": "uint256",
          "name": "",
          "type": "uint256"
        }
      ],
      "stateMutability": "view",
      "type": "function"
    },
    {
      "inputs": [],
      "name": "latestRequestId",
      "outputs": [
        {
          "internalType": "bytes32",
          "name": "",
          "type": "bytes32"
        }
      ],
      "stateMutability": "view",
      "type": "function"
    },
    {
      "inputs": [],
      "name": "owner",
      "outputs": [
        {
          "internalType": "address",
          "name": "",
          "type": "address"
        }
      ],
      "stateMutability": "view",
      "type": "function"
    },
    {
      "inputs": [],
      "name": "randomResult",
      "outputs": [
        {
          "internalType": "uint32",
          "name": "",
          "type": "uint32"
        }
      ],
      "stateMutability": "view",
      "type": "function"
    },
    {
      "inputs": [
        {
          "internalType": "bytes32",
          "name": "requestId",
          "type": "bytes32"
        },
        {
          "internalType": "uint256",
          "name": "randomness",
          "type": "uint256"
        }
      ],
      "name": "rawFulfillRandomness",
      "outputs": [],
      "stateMutability": "nonpayable",
      "type": "function"
    },
    {
      "inputs": [],
      "name": "renounceOwnership",
      "outputs": [],
      "stateMutability": "nonpayable",
      "type": "function"
    },
    {
      "inputs": [
        {
          "internalType": "uint256",
          "name": "_fee",
          "type": "uint256"
        }
      ],
      "name": "setFee",
      "outputs": [],
      "stateMutability": "nonpayable",
      "type": "function"
    },
    {
      "inputs": [
        {
          "internalType": "bytes32",
          "name": "_keyHash",
          "type": "bytes32"
        }
      ],
      "name": "setKeyHash",
      "outputs": [],
      "stateMutability": "nonpayable",
      "type": "function"
    },
    {
      "inputs": [
        {
          "internalType": "address",
          "name": "_Swaplottery",
          "type": "address"
        }
      ],
      "name": "setLotteryAddress",
      "outputs": [],
      "stateMutability": "nonpayable",
      "type": "function"
    },
    {
      "inputs": [
        {
          "internalType": "address",
          "name": "newOwner",
          "type": "address"
        }
      ],
      "name": "transferOwnership",
      "outputs": [],
      "stateMutability": "nonpayable",
      "type": "function"
    },
    {
      "inputs": [],
      "name": "viewLatestLotteryId",
      "outputs": [
        {
          "internalType": "uint256",
          "name": "",
          "type": "uint256"
        }
      ],
      "stateMutability": "view",
      "type": "function"
    },
    {
      "inputs": [],
      "name": "viewRandomResult",
      "outputs": [
        {
          "internalType": "uint32",
          "name": "",
          "type": "uint32"
        }
      ],
      "stateMutability": "view",
      "type": "function"
    },
    {
      "inputs": [
        {
          "internalType": "address",
          "name": "_tokenAddress",
          "type": "address"
        },
        {
          "internalType": "uint256",
          "name": "_tokenAmount",
          "type": "uint256"
        }
      ],
      "name": "withdrawTokens",
      "outputs": [],
      "stateMutability": "nonpayable",
      "type": "function"
    }
  ],
  "transactionHash": "0x56070a99829cbae9b84fdaa143f3a1e30fce48290ab5bb3f9c8805a31884f2fb",
  "args": [
    "0x699d428ee890d55D56d5FC6e26290f3247A762bd",
    "0x84b9B910527Ad5C03A9Ca831909E21e236EA7b06"
  ],
  "numDeployments": 2,
  "solcInputHash": "ffa711cea2c103738c8e3b5a5a311500",
  "bytecode": "0x60c060405234801561001057600080fd5b50604051610eff380380610eff83398101604081905261002f916100a8565b6001600160a01b0382811660a0528116608052600180546001600160a01b0319163390811790915560405181906000907f8be0079c531659141344cd1fd0a4f28419497f9722a3daafe3b4186f6b6457e0908290a35050506100db565b80516001600160a01b03811681146100a357600080fd5b919050565b600080604083850312156100bb57600080fd5b6100c48361008c565b91506100d26020840161008c565b90509250929050565b60805160a051610df161010e6000396000818161038e015261081a0152600081816104e801526107eb0152610df16000f3fe608060405234801561001057600080fd5b506004361061010b5760003560e01c806394985ddd116100a2578063b37217a411610071578063b37217a414610209578063ddca3f431461021c578063eed8e1ee14610225578063f2fde38b1461022e578063fbe5d9171461024157600080fd5b806394985ddd146101c257806398544710146101d5578063a1c4f55a146101e8578063b2bfb71d146101f657600080fd5b806361728f39116100de57806361728f391461017957806369fe0e2d14610182578063715018a6146101955780638da5cb5b1461019d57600080fd5b806306b091f9146101105780631aa46f59146101255780632a332b2a1461014157806342619f6614610154575b600080fd5b61012361011e366004610bd9565b610249565b005b61012e60045481565b6040519081526020015b60405180910390f35b61012361014f366004610c03565b610294565b6005546101649063ffffffff1681565b60405163ffffffff9091168152602001610138565b61012e60035481565b610123610190366004610c1e565b6102e0565b61012361030f565b6001546001600160a01b03165b6040516001600160a01b039091168152602001610138565b6101236101d0366004610c37565b610383565b6101236101e3366004610c1e565b610405565b60055463ffffffff16610164565b6002546101aa906001600160a01b031681565b610123610217366004610c1e565b610434565b61012e60065481565b61012e60075481565b61012361023c366004610c03565b6105b7565b60075461012e565b6001546001600160a01b0316331461027c5760405162461bcd60e51b815260040161027390610c59565b60405180910390fd5b6102906001600160a01b03831633836106a2565b5050565b6001546001600160a01b031633146102be5760405162461bcd60e51b815260040161027390610c59565b600280546001600160a01b0319166001600160a01b0392909216919091179055565b6001546001600160a01b0316331461030a5760405162461bcd60e51b815260040161027390610c59565b600655565b6001546001600160a01b031633146103395760405162461bcd60e51b815260040161027390610c59565b6001546040516000916001600160a01b0316907f8be0079c531659141344cd1fd0a4f28419497f9722a3daafe3b4186f6b6457e0908390a3600180546001600160a01b0319169055565b336001600160a01b037f000000000000000000000000000000000000000000000000000000000000000016146103fb5760405162461bcd60e51b815260206004820152601f60248201527f4f6e6c7920565246436f6f7264696e61746f722063616e2066756c66696c6c006044820152606401610273565b61029082826106f9565b6001546001600160a01b0316331461042f5760405162461bcd60e51b815260040161027390610c59565b600355565b6002546001600160a01b031633146104815760405162461bcd60e51b815260206004820152601060248201526f4f6e6c7920537761706c6f747465727960801b6044820152606401610273565b6003546104d05760405162461bcd60e51b815260206004820152601860248201527f4d75737420686176652076616c6964206b6579206861736800000000000000006044820152606401610273565b6006546040516370a0823160e01b81523060048201527f00000000000000000000000000000000000000000000000000000000000000006001600160a01b0316906370a0823190602401602060405180830381865afa158015610537573d6000803e3d6000fd5b505050506040513d601f19601f8201168201806040525081019061055b9190610c8e565b10156105a25760405162461bcd60e51b81526020600482015260166024820152754e6f7420656e6f756768204c494e4b20746f6b656e7360501b6044820152606401610273565b6105b1600354600654836107e7565b60045550565b6001546001600160a01b031633146105e15760405162461bcd60e51b815260040161027390610c59565b6001600160a01b0381166106465760405162461bcd60e51b815260206004820152602660248201527f4f776e61626c653a206e6577206f776e657220697320746865207a65726f206160448201526564647265737360d01b6064820152608401610273565b6001546040516001600160a01b038084169216907f8be0079c531659141344cd1fd0a4f28419497f9722a3daafe3b4186f6b6457e090600090a3600180546001600160a01b0319166001600160a01b0392909216919091179055565b604080516001600160a01b038416602482015260448082018490528251808303909101815260649091019091526020810180516001600160e01b031663a9059cbb60e01b1790526106f4908490610944565b505050565b816004541461073c5760405162461bcd60e51b815260206004820152600f60248201526e15dc9bdb99c81c995c5d595cdd1259608a1b6044820152606401610273565b610749620f424082610ca7565b61075690620f4240610cc9565b6005805463ffffffff191663ffffffff9290921691909117905560025460408051630405030b60e51b815290516001600160a01b03909216916380a061609160048082019260209290919082900301816000875af11580156107bc573d6000803e3d6000fd5b505050506040513d601f19601f820116820180604052508101906107e09190610c8e565b6007555050565b60007f00000000000000000000000000000000000000000000000000000000000000006001600160a01b0316634000aea07f0000000000000000000000000000000000000000000000000000000000000000858786604051602001610856929190918252602082015260400190565b6040516020818303038152906040526040518463ffffffff1660e01b815260040161088393929190610d3a565b6020604051808303816000875af11580156108a2573d6000803e3d6000fd5b505050506040513d601f19601f820116820180604052508101906108c69190610d6a565b5060008481526020818152604080832054815180840189905280830187905230606082015260808082018390528351808303909101815260a090910190925281519183019190912087845292909152610920906001610cc9565b6000868152602081905260409020556109398582610a16565b9150505b9392505050565b6000610999826040518060400160405280602081526020017f5361666545524332303a206c6f772d6c6576656c2063616c6c206661696c6564815250856001600160a01b0316610a459092919063ffffffff16565b8051909150156106f457808060200190518101906109b79190610d6a565b6106f45760405162461bcd60e51b815260206004820152602a60248201527f5361666545524332303a204552433230206f7065726174696f6e20646964206e6044820152691bdd081cdd58d8d9595960b21b6064820152608401610273565b604080516020808201859052818301849052825180830384018152606090920190925280519101205b92915050565b6060610a548484600085610a5c565b949350505050565b606082471015610abd5760405162461bcd60e51b815260206004820152602660248201527f416464726573733a20696e73756666696369656e742062616c616e636520666f6044820152651c8818d85b1b60d21b6064820152608401610273565b843b610b0b5760405162461bcd60e51b815260206004820152601d60248201527f416464726573733a2063616c6c20746f206e6f6e2d636f6e74726163740000006044820152606401610273565b600080866001600160a01b03168587604051610b279190610d8c565b60006040518083038185875af1925050503d8060008114610b64576040519150601f19603f3d011682016040523d82523d6000602084013e610b69565b606091505b5091509150610b79828286610b84565b979650505050505050565b60608315610b9357508161093d565b825115610ba35782518084602001fd5b8160405162461bcd60e51b81526004016102739190610da8565b80356001600160a01b0381168114610bd457600080fd5b919050565b60008060408385031215610bec57600080fd5b610bf583610bbd565b946020939093013593505050565b600060208284031215610c1557600080fd5b61093d82610bbd565b600060208284031215610c3057600080fd5b5035919050565b60008060408385031215610c4a57600080fd5b50508035926020909101359150565b6020808252818101527f4f776e61626c653a2063616c6c6572206973206e6f7420746865206f776e6572604082015260600190565b600060208284031215610ca057600080fd5b5051919050565b600082610cc457634e487b7160e01b600052601260045260246000fd5b500690565b80820180821115610a3f57634e487b7160e01b600052601160045260246000fd5b60005b83811015610d05578181015183820152602001610ced565b50506000910152565b60008151808452610d26816020860160208601610cea565b601f01601f19169290920160200192915050565b60018060a01b0384168152826020820152606060408201526000610d616060830184610d0e565b95945050505050565b600060208284031215610d7c57600080fd5b8151801515811461093d57600080fd5b60008251610d9e818460208701610cea565b9190910192915050565b60208152600061093d6020830184610d0e56fea26469706673582212205dab08b74fac2300af3ec800795152c6ed39e587ec286610080d4b36bbd14d1b64736f6c63430008110033",
  "devdoc": {
    "kind": "dev",
    "methods": {
      "owner()": {
        "details": "Returns the address of the current owner."
      },
      "renounceOwnership()": {
        "details": "Leaves the contract without owner. It will not be possible to call `onlyOwner` functions anymore. Can only be called by the current owner. NOTE: Renouncing ownership will leave the contract without an owner, thereby removing any functionality that is only available to the owner."
      },
      "transferOwnership(address)": {
        "details": "Transfers ownership of the contract to a new account (`newOwner`). Can only be called by the current owner."
      }
    },
    "version": 1
  },
  "userdoc": {
    "kind": "user",
    "methods": {
      "getRandomNumber(uint256)": {
        "notice": "Requests randomness from a user-provided seed"
      },
      "viewLatestLotteryId()": {
        "notice": "View latest lotteryId numbers"
      },
      "viewRandomResult()": {
        "notice": "Views random result"
      }
    },
    "version": 1
  },
  "storageLayout": {
    "storage": [
      {
        "astId": 4437,
        "contract": "contracts/randomaddress.sol:RandomNumberGenerator",
        "label": "nonces",
        "offset": 0,
        "slot": "0",
        "type": "t_mapping(t_bytes32,t_uint256)"
      },
      {
        "astId": 3525,
        "contract": "contracts/randomaddress.sol:RandomNumberGenerator",
        "label": "_owner",
        "offset": 0,
        "slot": "1",
        "type": "t_address"
      },
      {
        "astId": 4575,
        "contract": "contracts/randomaddress.sol:RandomNumberGenerator",
        "label": "Swaplottery",
        "offset": 0,
        "slot": "2",
        "type": "t_address"
      },
      {
        "astId": 4577,
        "contract": "contracts/randomaddress.sol:RandomNumberGenerator",
        "label": "keyHash",
        "offset": 0,
        "slot": "3",
        "type": "t_bytes32"
      },
      {
        "astId": 4579,
        "contract": "contracts/randomaddress.sol:RandomNumberGenerator",
        "label": "latestRequestId",
        "offset": 0,
        "slot": "4",
        "type": "t_bytes32"
      },
      {
        "astId": 4581,
        "contract": "contracts/randomaddress.sol:RandomNumberGenerator",
        "label": "randomResult",
        "offset": 0,
        "slot": "5",
        "type": "t_uint32"
      },
      {
        "astId": 4583,
        "contract": "contracts/randomaddress.sol:RandomNumberGenerator",
        "label": "fee",
        "offset": 0,
        "slot": "6",
        "type": "t_uint256"
      },
      {
        "astId": 4585,
        "contract": "contracts/randomaddress.sol:RandomNumberGenerator",
        "label": "latestLotteryId",
        "offset": 0,
        "slot": "7",
        "type": "t_uint256"
      }
    ],
    "types": {
      "t_address": {
        "encoding": "inplace",
        "label": "address",
        "numberOfBytes": "20"
      },
      "t_bytes32": {
        "encoding": "inplace",
        "label": "bytes32",
        "numberOfBytes": "32"
      },
      "t_mapping(t_bytes32,t_uint256)": {
        "encoding": "mapping",
        "key": "t_bytes32",
        "label": "mapping(bytes32 => uint256)",
        "numberOfBytes": "32",
        "value": "t_uint256"
      },
      "t_uint256": {
        "encoding": "inplace",
        "label": "uint256",
        "numberOfBytes": "32"
      },
      "t_uint32": {
        "encoding": "inplace",
        "label": "uint32",
        "numberOfBytes": "4"
      }
    }
  }
}